:020000040800F2
:100000000028002011030008F9020008FB02000884
:10001000FD020008FF0200080103000800000000C4
:1000200000000000000000000000000003030008C2
:10003000050300080000000007030008090300088A
:100040005903000859030008590300085903000820
:100050005903000859030008590300085903000810
:100060005903000859030008590300085903000800
:1000700059030008590300085903000859030008F0
:1000800059030008590300085903000859030008E0
:1000900059030008590300085903000859030008D0
:1000A00059030008590300085903000859030008C0
:1000B0005903000859030008000000005903000814
:1000C0005903000800000000000000005903000868
:1000D0000000000059030008590300080000000058
:1000E00059030008590300085903000800000000E4
:1000F0000000000000000000000000000000000000
:0C01000000000000000000005FF808F1A3
:10010C0010B5054C237833B9044B13B10448AFF345
:10011C0000800123237010BD24000020000000008B
:10012C00800B000808B5034B1BB103490348AFF320
:10013C00008008BD0000000028000020800B000893
:10014C0001224FF6F071014800F084BA000801401A
:10015C000B2839D8DFE800F0060C1014181C2024EA
:10016C00282C30340022194B1988194800F072BA27
:10017C00164B00225988F8E7144B00229988F4E7B3
:10018C00124B0022D988F0E7104B00221989ECE7BA
:10019C000E4B00225989E8E70C4B00229989E4E7C1
:1001AC000A4B0022D989E0E7084B0022198ADCE7C8
:1001BC00064B0022598AD8E7044B0022998AD4E7CF
:1001CC00024B0022D98AD0E7704700BF0000002004
:1001DC000008014000B591B02422002107A800F0CE
:1001EC009DFC1422002101A800F098FC022301219F
:1001FC000693102306A8CDE90A1300F031FA014644
:10020C0008B172B6FEE70F23CDE90300CDE901304A
:10021C00059001A800F0E6FB08B172B6FEE711B03C
:10022C005DF804FBF0B587B000F0B6F8FFF7D2FF2D
:10023C001022002102A800F071FC1E4B4FF6F07149
:10024C009A691D4842F004029A619B69002203F0EE
:10025C0004030193019B00F0FDF94FF6F0720123AA
:10026C000024CDE902230223134802A9CDE904435B
:10027C00264600F01DF9254605273C2E04BF002616
:10028C0001353C2C04BF00240136FFF759FF2846EA
:10029C00FFF75EFFB6FBF7F0FFF75AFFB4FBF7F082
:1002AC00FFF756FF322000F09BF80C2D08BF0025FD
:1002BC000134E2E700100240000801400A4B82B012
:1002CC009A6942F001029A619A6902F00102009265
:1002DC00009ADA6942F08052DA61DB6903F08053EC
:1002EC000193019B02B0704700100240FEE7FEE74D
:1002FC00FEE7FEE7FEE770477047704700F05EB818
:10030C0070470000FFF7FCFF0B480C490C4A002318
:10031C0002E0D458C4500433C4188C42F9D3094AAF
:10032C00094C002301E013600432A242FBD300F01D
:10033C00FDFBFFF777FF7047000000202400002032
:10034C00C40B00082400002044000020FEE700003D
:10035C0038B50E4B05461A784FF47A73B3FBF2F3AB
:10036C000B4A1068B0FBF3F000F08EF8044658B955
:10037C000F2D09D8024629464FF0FF3000F054F8F3
:10038C002046044B1D6038BD0120FCE71C000020FA
:10039C001800002020000020074A08B5136803202D
:1003AC0043F01003136000F02DF80F20FFF7D0FF7F
:1003BC00FFF784FF002008BD00200240034A044BD5
:1003CC0011681B780B441360704700BF400000207D
:1003DC001C000020014B1868704700BF4000002033
:1003EC0038B50446FFF7F6FF0546631C1EBF044BE9
:1003FC001B78E418FFF7EEFF431BA342FAD338BD7A
:10040C001C00002007490302CA6803F4E06322F4CD
:10041C00E0621204120C134343F0BF6343F4003345
:10042C00CB60704700ED00E0154B30B5DC68C4F3D1
:10043C000224C4F10703251D042B28BF0423062D19
:10044C004FF0FF3594BF0024033C05FA03F321EA77
:10045C000303A54022EA0502A340002843EA020355
:10046C00ACBF00F16040074A4FEA0313DBB2ABBFED
:10047C0000F5614000F00F0080F80033135430BDDC
:10048C0000ED00E014ED00E00138B0F1807F0BD2FC
:10049C004FF0E023F021054A586182F82310002028
:1004AC00072298611A6170470120704700ED00E047
:1004BC002DE9F74F00221646DFF87CC15F4BDFF8C1
:1004CC0080E1DFF880810D6835FA06F402D103B0C3
:1004DC00BDE8F08F0127B74005EA070437EA0505A8
:1004EC0075D14D68032D06D8013D022D7ED8DFE86D
:1004FC0005F08F949A00122D00F0928069D8112D7E
:10050C0000F08880FF2C98BF81464FF00F0B88BFFE
:10051C0000F104094FEA8605D9F8007088BF203D28
:10052C000BFA05FA27EA0A0702FA05F52F43C9F870
:10053C000070D1F8049019F0805F48D0DCF81850A6
:10054C0026F0030745F00105CCF81850DCF81850DC
:10055C0007F1804705F00105019507F5803706F096
:10056C00030A019D4FEA8A0ABD680BFA0AFB25EAC9
:10057C000B0B354DA8425AD005F58065A84258D0D2
:10058C0005F58065A84214BF0325022505FA0AF576
:10059C0045EA0B05BD609D6819F4801F14BF254307
:1005AC00A5439D60DD6819F4001F14BF2543A543C6
:1005BC00DD605D6819F4003F14BF2543A5435D6001
:1005CC001D6819F4803F14BF2543A5431D600136F7
:1005DC0079E7DFF878904D4508D011D8A9F5801946
:1005EC004D4503D0754501D045458BD18A68E2B1A4
:1005FC00012A08BF07614FF0080218BF476181E765
:10060C00DFF84C904D45F1D009F580394D45ECE7BC
:10061C00CA6877E7CA68043274E7CA68083271E7B7
:10062C00CA680C326EE700226CE704226AE70025E8
:10063C00ACE70125AAE700BF00100240000401400E
:10064C0000002110000011100008014000002210D1
:10065C00000031100AB1016170470904FBE700008A
:10066C002DE9F341054638B30368DB0710D42B683A
:10067C009F075ED42B68190700F195802B685A07E9
:10068C0000F1C180EB69002B40F02C81002029E0A7
:10069C00904C636803F00C03042B07D0636803F0E1
:1006AC000C03082B0AD16368DE0307D523689C036F
:1006BC00DDD56B68002BDAD1012013E06B68B3F544
:1006CC00803F12D1236843F480332360FFF782FE0E
:1006DC00064623689803CAD4FFF77CFE801B642867
:1006EC00F7D9032002B0BDE8F0819BB9236823F44D
:1006FC0080332360236823F480232360FFF76AFE92
:10070C00064623689903B2D5FFF764FE801B642864
:10071C00F7D9E6E7B3F5A02F236803D143F4802380
:10072C002360CFE723F480332360236823F48023F2
:10073C00CBE7684C636813F00C0F07D0636803F0C9
:10074C000C03082B10D16368DA030DD423689B07C4
:10075C0002D52B69012BAFD123686A6923F0F8030A
:10076C0043EAC203236085E72A695B4B6AB1012225
:10077C001A60FFF72FFE064623689F07ECD4FFF79D
:10078C0029FE801B0228F7D9ABE71A60FFF722FE7F
:10079C000646236898077FF56DAFFFF71BFE801B9D
:1007AC000228F6D99DE7AA694A4E4B4BE2B10122C9
:1007BC00C3F88024FFF70EFE0446736A9B070DD521
:1007CC004FF4FA52454B1B68B3FBF2F3019300BF95
:1007DC00019B5A1E0192002BF9D14FE7FFF7FAFD4E
:1007EC00001B0228E9D97CE7C3F88024FFF7F2FD4F
:1007FC000446736A9F077FF541AFFFF7EBFD001BC3
:10080C000228F6D96DE7334CE369D80024D40127CC
:10081C00E36943F08053E361E36903F08053009391
:10082C00009B2F4E3368D90518D5EB68012B26D1C8
:10083C00236A43F001032362FFF7CCFD41F28838B1
:10084C000646236A9B073FD5002F3FF41BAFE36995
:10085C0023F08053E36115E70027E2E7336843F4A4
:10086C0080733360FFF7B6FD80463368DA05DCD45D
:10087C00FFF7B0FDA0EB08006428F6D931E7ABB95F
:10088C00236A41F2883823F001032362236A23F0A0
:10089C0004032362FFF79EFD0646236A9807D3D50F
:1008AC00FFF798FD801B4045F7D91AE7052B236A03
:1008BC0003D143F004032362BAE723F0010323625C
:1008CC00236A23F00403B6E7FFF784FD801B404541
:1008DC00B7D906E700100240000042421800002081
:1008EC00007000402A4C626802F00C02082A3ED0CC
:1008FC000022022B274B1A662CD1FFF76BFD064604
:10090C002368990120D42B6AB3F5803F05D1626826
:10091C00A96822F400320A436260696A62680B4378
:10092C0022F474121343012263601A4B1A66FFF708
:10093C0051FD054623689A013FF5A8AEFFF74AFD25
:10094C00401B0228F6D9CCE6FFF744FD801B022899
:10095C00D6D9C6E6FFF73EFD054623689B017FF519
:10096C0095AEFFF737FD401B0228F6D9B9E6012BEF
:10097C003FF4A2AE60682B6A00F480329A427FF496
:10098C009BAE6B6A00F47010C01A18BF0120A9E668
:10099C0000100240000042420D4A536803F00C0163
:1009AC00082912D10B48C3F38341DB03405C09D502
:1009BC005368094AC3F340435043084AD35CB0FB25
:1009CC00F3F07047064B584370470348704700BF1D
:1009DC0000100240AA0B000800127A00A80B0008B5
:1009EC0000093D002DE9F0410D46044610B90120E7
:1009FC00BDE8F081444A136803F007038B4228D307
:100A0C0021688E0730D4CA0743D43F4A136803F0D9
:100A1C000703AB4265D822683C4D12F0040F6CD131
:100A2C00130706D56B68226923F4605343EAC203AB
:100A3C006B60FFF7B1FF6B68354AC3F30313D35CEC
:100A4C00D840344B1860344B1868FFF781FC0020F9
:100A5C00CEE7136823F007030B431360136803F00E
:100A6C0007038B42C3D1CBE7284B11F0040F1EBFF9
:100A7C005A6842F4E0625A60080742BF5A6842F46E
:100A8C0060525A605A68A06822F0F00202435A6021
:100A9C00B9E762681D4E012A33681AD113F4003F7E
:100AAC00A5D0736841F2883823F0030313437360B5
:100ABC00FFF790FC07467368626803F00C03B3EB16
:100ACC00820FA2D0FFF786FCC01B4045F3D9032050
:100ADC008EE7022A02D113F0007FE1E713F0020F38
:100AEC00DEE7136823F007032B431360136803F04E
:100AFC000703AB427FF47BAF8DE76B68E16823F4AF
:100B0C00E0630B436B608BE7002002400010024057
:100B1C00980B000818000020200000200346024417
:100B2C00934200D1704703F8011BF9E770B500261A
:100B3C000C4D0D4C641BA410A64209D100F01AF800
:100B4C0000260A4D0A4C641BA410A64205D170BDA8
:100B5C0055F8043B98470136EEE755F8043B9847A7
:100B6C000136F2E7BC0B0008BC0B0008BC0B0008FC
:100B7C00C00B0008F8B500BFF8BC08BC9E46704717
:0C0B8C00F8B500BFF8BC08BC9E467047DE
:100B98000000000000000000010203040607080925
:100BA800010202030405060708090A0B0C0D0E0FC3
:040BB8001010000019
:040BBC0031010008FB
:040BC0000D0100081B
:100BC4001000200040008000000100020004000822
:100BD400001000200040008000127A000100000094
:040BE40010000000FD
:0400000508000311DB
:00000001FF
